:020000040800F2
:10000000785B0120E1020008E1410008414100085D
:10001000D9410008D90600088154000800000000FA
:10002000000000000000000000000000F3020008D3
:10003000E106000800000000DD0300089503000849
:10004000FB020008FB020008FB020008FB0200089C
:10005000FB020008FB020008FB020008FB0200088C
:10006000FB020008FB020008FB020008FB0200087C
:10007000FB020008FB020008FB020008FB0200086C
:10008000FB020008FB020008FB020008FB0200085C
:10009000FB020008FB020008FB020008FB0200084C
:1000A000FB020008FB020008FB020008FB0200083C
:1000B000FB020008FB020008FB020008FB0200082C
:1000C000FB020008FB020008FB020008FB0200081C
:1000D000FB020008FB020008FB020008FB0200080C
:1000E000FB020008FB02000800000000FB02000801
:1000F000FB020008FB020008FB020008FB020008EC
:10010000FB020008FB020008FB020008FB020008DB
:10011000FB020008FB020008D9480008FB020008A7
:10012000FB020008FB020008FB020008FB020008BB
:10013000FB020008FB020008FB020008FB020008AB
:1001400000000000000000000000000000000000AF
:10015000FB020008FB020008FB020008FB0200088B
:10016000FB020008FB020008FB020008FB0200087B
:10017000FB020008FB020008FB020008FB0200086B
:10018000FB020008FB020008FB020008FB0200085B
:10019000FB020008FB020008FB020008FB0200084B
:1001A000FB020008FB020008FB0200080000000040
:1001B000E9410008FB020008FB020008FB020008FE
:1001C000FB020008FB020008000000000000000025
:1001D0000000000000000000FB020008000000001A
:1001E000000000000000000000000000000000000F
:1001F0000000000000000000FB020008FB020008F5
:10020000FB020008FB02000800000000FB020008DF
:10021000FB020008FB020008FB020008FB020008CA
:10022000FB02000800000000494100080000000037
:10023000FB020008FB02000800000000FB020008AF
:10024000FB020008FB020008FB020008FB0200089A
:10025000FB020008FB020008FB020008FB0200088A
:10026000FB020008FB020008FB020008FB0200087A
:10027000FB020008FB020008FB020008000000006F
:10028000FB020008FB020008FB020008FB0200085A
:1002900000000000FB020008FB020008FB0200084F
:1002A000FB020008FB020008FB020008FB0200083A
:1002B000FB020008FB020008FB020008FB0200082A
:1002C000FB020008FB020008FB020008DFF80CD06C
:1002D00000F0CEF90048004719E30008785B0120E0
:1002E0000648804706480047FEE7FEE7FEE7FEE7D0
:1002F000FEE7FEE7FEE7FEE7FEE7FEE72948000827
:10030000CD02000800000000000000000000000016
:1003100000000008AC12002000000008001000E0FF
:100320007F584F000000FF4000BF00BF00BF00BF6C
:1003300072B64FF0E0205FF82810C0F8081D5FF893
:100340002C005FF82C10096801605FF8300001682C
:1003500041F0010101604FF0E0205FF83C10416185
:100360004FF0070101614FF00001C0F8181D4FF078
:100370007F41C0F81C1D5FF85410C0F8201D704765
:10038000FFF7FEBFFFF7FEBFFFF7FEBF01B5BDE8F9
:100390000140704701B500F093F8BDE80140704797
:1003A000FFF7FEBFFFF7FEBF0000000000000000E7
:1003B0004FF000002A4A1060EFF3148020F0040090
:1003C00080F3148862B64FF080504FF0E021C1F8FE
:1003D000040DBFF34F8FBFF36F8FFEE72148224A12
:1003E0004FF00003016891B10360EFF3098C2CE931
:1003F000F00F1EF0100F01D12CED108A1B4C4CF8A1
:1004000004ED2568C1F808C00DB18D61236072B696
:100410001168B1B1016062B64F68154C8D6907F182
:1004200001074F602560D1F808C05CF804EB1EF0AE
:10043000100F01D1BCEC108ABCE8F00F8CF30988D6
:10044000704772B61168016009B962B6F9E74FF0FA
:1004500000674FF0E028C8F8047D62B6DCE770471B
:10046000E8110020D0110020D4110020F811002044
:10047000F811002000000000000000000000000053
:10048000026922F00702A2F144026FF00203136036
:100490004FF0000353609360D36013615361936125
:1004A000D361136253629362D362136353634FF059
:1004B000FF339363D1634FF080731364826070479E
:1004C0002249086800F101000860214B1A683AB11E
:1004D000A2F101021A601AB91E4B4FF00100186018
:1004E0001D490868026822B11C4B4FF001021A60D6
:1004F00008E000F104001A4B1A68904201D1194B30
:1005000018680860184B1A6812B918490868D0B101
:100510002DE901401649086808B10CF0E1FC154BC3
:100520001A6872B10CF03CFC1348016849B91348D1
:100530000168134A136813484FF08052994200D063
:100540000260BDE80140BFF34F8F7047F4110020F7
:10055000F8110020FC1100200C12002000120020D5
:100560001012002008120020FC11002000120020B0
:1005700000120020FC110020E8110020D011002002
:10058000D411002004ED00E02DE9F05F05460020C5
:1005900092469B4688460646814640241BE02846F4
:1005A00041464746224600F053F853465A46C01A81
:1005B000914110D311461846224600F03AF82D1A00
:1005C00067EB01084F4622460120002100F031F878
:1005D00017EB00094E41201EA4F10104DFDC484660
:1005E00031462A464346BDE8F09F40EA01039B0797
:1005F00003D009E008C9121F08C0042AFAD203E098
:1006000011F8013B00F8013B521EF9D27047D2B2FB
:1006100001E000F8012B491EFBD270470022F6E7EB
:1006200010B513460A4604461946FFF7F0FF204668
:1006300010BD202A04DB203A00FA02F100207047A6
:100640009140C2F1200320FA03F319439040704710
:10065000202A04DB203A21FA02F00021704721FA17
:1006600002F3D040C2F1200291400843194670477E
:10067000064C074D06E0E06840F0010394E80700EF
:1006800098471034AC42F6D3FFF724FEACEB0008D9
:10069000CCEB000830B58C1810F8012B12F00F03CA
:1006A00001D110F8013B120906D110F8012B03E02B
:1006B00010F8015B01F8015B5B1EF9D101E001F864
:1006C000013B521EFBD1A142E6D3002030BD000009
:1006D0000020704700000000FEE70000000000005E
:1006E000704700000000000040F600040821C5F635
:1006F00002040122204600F01BF900BF042120461D
:1007000000F00EF9C82000F003F8F7E70000000041
:10071000B0B5044600F014F940F204010546C2F2F7
:100720000001621C097818BF0C4400BF00F008F9F2
:10073000401BA042FAD3B0BD2DE9F04F85B08E46E4
:1007400042F20042C5F602020A2102909042DEF80F
:10075000005008BF0921002D009100F0DD800298B3
:10076000002400F12642009802F1FF7201274FEAAF
:10077000B2230026082B4FF0000838BF1846CDF8EA
:100780000CE000900EE000BFDEF8005008F1010818
:1007900035FA07F006F1020607F1010704F1040437
:1007A00000F0BA80A7F1010A012000FA0AF315EA65
:1007B0000309E9D0DEF804B00BF003056A1E012A34
:1007C00022D802984FEA4801D0F808C001910321CD
:1007D00001FA06F203992CEA020CD1F80CE00EFAA9
:1007E00006F1DDF80CE041EA0C01816041686FEA36
:1007F000020CCBF3001299430346019802FA0AF265
:10080000114359600CE000BF0320032D00FA06F0ED
:10081000029B6FEA000C304602D13046032526E0E9
:10082000D968DEF8082001EA0C018240022D41EA75
:100830000201D9601BD102466FF0030000EA5A01A1
:100840000F20194404F01C0300FA03F51046D1F8F8
:1008500020E0039A2EEA0505DDF80CE012699A40C3
:10086000029B2A430A62DEF804B00BF00305196804
:1008700005FA00F001EA0C011BF4403F40EA0100D8
:1008800018603FF481AF44F2F44140F20845C5F6E8
:100890000201C5F600050F23086840F00200086059
:1008A000086800F0020004902AF00300049904F0A4
:1008B0000C0142598B409A43009B03FA01F111430A
:1008C00041514FF0B0452868DEF8041040EA0902B3
:1008D000CB0258BF20EA09028B022A6040F20405CD
:1008E000C5F60005286840EA090258BF20EA090257
:1008F0008B032A60D5F8800040EA090258BF20EA3D
:100900000902C903C5F88020E86F40EA090258BF10
:1009100020EA0902EA6737E705B0BDE8F08F00007A
:10092000426902EA0103914341EA03418161704750
:10093000002A08BF09048161704700000000000020
:1009400045F27070C2F201000068704700000000BC
:1009500040F2040045F27071C2F20000C2F20101DF
:1009600000780A681044086070470000000000002A
:1009700080B5032000F078FB02F0AEFD44F2184190
:100980004EF67023C5F60201C0F600030A68096836
:1009900001F00F01C2F30322595C9A5C01F01F01C0
:1009A00002F01F02D04040F21002C2F2000220FA10
:1009B00001F1116040F20C01C2F2000108600F2049
:1009C00000F00AF800281CBF012080BD00F0FCFAEE
:1009D000002080BD00000000B0B58AB00F2842D8CA
:1009E0000446362000222146002500F00DFB36206B
:1009F00000F0FAFA40F20800C2F20000046044F28B
:100A0000E840C5F60200016841F01001016000688D
:100A100001A900F010000290029802A802F0A8FCC0
:100A2000079C002C18BF012402F0F6FC4DF68361F0
:100A3000A040C4F21B3141F20002A0FB010142F6CA
:100A40004850C2F200004FF0FF33C4F200020260CF
:100A500003EB9141C0E9011540F2E731C0E903150C
:100A600003F05EF810B101200AB0B0BD42F6485064
:100A7000C2F2000003F088F80AB0B0BD0000000028
:100A800070B190F83D1002290CD1042180F83D107E
:100A90000068C16821F00101C1600020704700BFFB
:100AA000012070478021816601207047000000000E
:100AB00030B190F83C30012B04D10220704700BFC8
:100AC0000120704790F83D30012B1BD1D0F800C0B9
:100AD000DCF810305B0015D4CCF830100029CCF8CD
:100AE00034204FF00001DCF8102022F0004218BF43
:100AF00002F10042CCF81020002280F83C20084689
:100B0000704700BF0121002280F83C200846704752
:100B100070B582B004460020019040F20C012068BC
:100B2000C2F2000100F5F8624FF0A4430968C2F375
:100B300084121B6823FA02F2D20700F0B48048F254
:100B4000B5120368C1F64E32A1FB0216D90721D0B7
:100B5000C16889071ED5C16821F00201C1608168A2
:100B60000A064FF0020258BF0122A36E8D0542EA29
:100B70000302A26600F19A80CA0500F19E804A0530
:100B800000F1A280090503D5A16E41F02001A16604
:100B9000012141600168C90644BFC1685FEA816103
:100BA00052D40168090744BFC1685FEAC16155D4E6
:100BB0000168490744BFC1685FEA017158D4016800
:100BC000890744BFC1685FEA41715BD4A06E002809
:100BD00069D0042084F83D002068B10AC26822F080
:100BE0000102C260019A013201928A421AD8C26897
:100BF000D20717D0019A013201928A4212D8C268F4
:100C0000D2070FD0019A013201928A420AD8C268F3
:100C1000D20707D0019A013201928A4202D8C268F3
:100C2000D207DFD1002184F83C10C068C0074FF024
:100C3000030008BF012084F83D00616D99B3204690
:100C400002B0BDE87040084710214160A16C002946
:100C5000A7D0204688472068A3E700BF082141604D
:100C6000E16C0029A4D0204688472068A0E700BF97
:100C700004214160216D0029A1D0204688472068C9
:100C80009DE700BFC16821F03E01C16094F83D10AE
:100C9000042921D1002084F83C00012084F83D0083
:100CA000A16D0029CBD102B070BD00BFA26E42F091
:100CB0000402A266CA057FF562AFA26E42F0080286
:100CC000A2664A057FF55EAFA26E42F01002A266F0
:100CD00009053FF559AF5BE702214160002084F828
:100CE0003C00012084F83D00616C00293FF46EAFA8
:100CF000204688476AE7000070B50446FFF720FEEB
:100D0000002C55D00546002084F83C00022084F8D1
:100D10003D002068C16821F00101C160C168C907B8
:100D200009D000BFFFF70CFE401B052842D8206801
:100D3000C168C907F6D1D4E90335D4E901CE2B4304
:100D4000C360D4E905352B43E5692B43256A2B4362
:100D5000BCF1804FD4E90951D4E90B2643EA0503DD
:100D600042EA030240F20003CFF6FC7342EA0602B5
:100D700003EB814142EA0E0241EA0201016103D123
:100D8000016941F04041016100214161626BB2F1B2
:100D9000FF3F04DC4169524241F48021416191B23C
:100DA0000162A26BB2F1FF3F0CDD120411E000BF43
:100DB000012070BD012003224021A16684F83D205E
:100DC00070BD00BF4169002341F400214161A3EBE4
:100DD0000242016A114301625FFA8CF181620021D3
:100DE000416201220020C4E917116166A16684F8FE
:100DF0003D2070BD00000000B0B538B190F83CC097
:100E0000BCF1010F04D10220B0BD00BF0120B0BD74
:100E10004FF0010C80F83CC090F83DC0BCF1010FD0
:100E200078D14FF0020C80F83DC04FF0000CC0F8B4
:100E300068C0D0F800C0D0F85CE011F05F4FDCF87B
:100E40000C4024F00104CCF80C40DCF81450049C55
:100E500063F310054FF6FF73CCF81450C0F2010392
:100E6000DCF8145003F5602303EA050343EA045356
:100E7000A3F58013CCF814304FF01F03CCF80430E6
:100E8000CCF81C20CCF81810DCF8283023F4803380
:100E900008BF03F5803312F05F4FCCF82830DCF840
:100EA000281021F4003108BF01F50031CCF82810DA
:100EB000CCF824E0DCF80C1041F00601CCF80C1062
:100EC000C16C29B1DCF80C1041F01001CCF80C1009
:100ED000016D29B1DCF80C1041F00801CCF80C10C0
:100EE000816C29B1DCF80C1041F02001CCF80C1019
:100EF000DCF80C1041F00101CCF80C104068B0F1A6
:100F0000804F0DD1DCF80C0040F48030CCF80C00A0
:100F10000020B0BD002180F83C100220B0BD00BF11
:100F20000020B0BD00000000B0B502784EF69C5C19
:100F3000CEF2000C43784CF8043CFAB14368CCF88C
:100F40000030037BC17A90F80AE0457B447A42EA9C
:100F50000372837B42EA0161C27B41EACE41007A9F
:100F600041EA854141EA434141EA024141EA042123
:100F700041EA4000CCF80400B0BD00BF0020CCF82E
:100F80000000CCF80400B0BD4EF62450CEF20000B4
:100F9000BFF35F8F016821F4803101600021016798
:100FA00070470000000000004EF6245140F00100A0
:100FB000CEF200010867086840F480300860BFF393
:100FC0004F8FBFF36F8F704781B044F2F440C5F686
:100FD0000200016841F002010160006800F00200B7
:100FE0000090009801B07047002848BF704700F09B
:100FF0001F01012202FA01F14EF200124009CEF265
:10100000000242F820107047B0B54EF60C5C00F0BC
:101010000F05CEF2000C043D6544DCF800304FF0C3
:10102000FF3CC3F3022E8EF00703042B28BF0423DA
:10103000BEF1030438BF00240CFA03F3B0F1FF3F04
:1010400021EA030105F10C0300F160450CFA04F0FC
:10105000C8BF05F56443A14022EA0000084300012F
:101060001870B0BD000000004EF60C514FF6FF03A3
:10107000CEF200010A681A4060F30A2242F0806052
:1010800040F0FD70086070472DE9F04F8DB04BF2D5
:1010900004480022C5F200280392CDE901220492FF
:1010A00045F200030592C5F20023D0F80090D8F86D
:1010B0000000B9EB030A00F0030218BF4FF0010A69
:1010C000012A6DD10122019200F03002102A6BD06A
:1010D00000F44072B2F5807F01D10122039200F446
:1010E000A0220127B2F5803FC0F2001764D182032D
:1010F0003A4658BF4FF00112049200F0A062B2F1DC
:10110000807F5ED0D8F8040000F00302012A64D189
:101110000222019200F03002102A62D000F44072E4
:10112000B2F5807F01D10222039200F4A02240F2A6
:10113000020EB2F5803FC0F2010E0AD13A46870393
:101140001746724645F2000348BF7A1CC5F20023D9
:10115000049200F0A062B2F1807F04D18001704659
:1011600048BF781C059000250B95CDE90955CDE9C0
:10117000075558F8040CD8F80060C0074FF4007009
:1011800004BF40F22220C0F20440F20705D086EAF4
:10119000000292072ED401250795F2062DD43BE0DC
:1011A00000F03002102A93D10122029200F4407222
:1011B000B2F5807F91D092E700F0A062B2F1807F1B
:1011C000A0D18001384658BF4FF001100590D8F8E3
:1011D000040000F00302012A9AD000F03002102A25
:1011E0009CD10222029200F44072B2F5807F9AD024
:1011F0009BE700BF0025F2060ED586EA00029206A4
:101200000AD4012401220092089406F44072B2F537
:10121000407F0AD107E000BF0022009206F440722E
:10122000B2F5407F01D101220992F2030ED586EA80
:10123000000252030AD4BC46B20358BF4FF0011C4F
:10124000CDF828C0F20115D504E000BF4FF0000C26
:10125000F2010FD586EA000252010BD4BB46B2015F
:1012600058BF4FF0011BCDF82CB0D8F80440E2076E
:101270000CD005E04FF0000BD8F80440E20705D091
:1012800084EA0002920701D402250795E20607D5F9
:1012900084EA0002920603D40226022200920896F3
:1012A00004F44072B2F5407F01D102220992E203B8
:1012B0000AD584EA0002520306D4F446A20348BFCA
:1012C00007F1010CCDF828C0E20109D560404001CA
:1012D00006D4A00148BF07F1010EF346CDF82CE07B
:1012E0001868C007A9EB030002D14FF0000E05E01B
:1012F0001A684FF0010E22F001021A60B0FA80F471
:101300004AF20003C5F200231A68D20705D0186814
:101310000EF1020E20F0010018600AEB4A0601A847
:10132000640900EBC602976808EB870757F8043C8E
:1013300023F4807347F8043C58F8043CDB072BD1B6
:1013400050F83670002F5DD008EB870353F8047C0B
:1013500027F0010743F8047C57683FB108EB870387
:1013600053F8047C27F0100743F8047CD7683FB19A
:101370000123BB4358F8237027F4803748F82370C3
:101380001269002A3ED0012323EA020258F82230D3
:1013900023F0807334E000BF45F2000358F8042CBA
:1013A000C5F2002322F00102994548F8042C29D106
:1013B00008EB850252F8043C009D43F0020342F81A
:1013C000043C3DB108EB850252F8043C43F0200395
:1013D00042F8043CBCF1000F08D0012222EA0C02C2
:1013E00058F8223043F4802348F82230BBF1000F34
:1013F00008D0012222EA0B0258F8223043F0806321
:1014000048F8223004EB44024E6800EBC20450F866
:1014100032000A688242656816D145F20007AE4282
:101420002A46C5F2002728D1CA68E3689A421DD12E
:101430000A6923699A4232461FD158F8040C40F0D9
:10144000010048F8040C48E045F20007AE4232467D
:10145000C5F2002711D08A68A3689A4203D0CA68EF
:10146000E3689A4204D12A4607E000BF324604E00E
:101470000A6923699A422A462FD108EB800050F866
:10148000043C23F0010340F8043C3AB108EB82002D
:1014900050F8042C22F0100240F8042CA06808EB4D
:1014A000800050F8042C22F4807240F8042CE0688C
:1014B00040B1012222EA000058F8202022F48032B4
:1014C00048F82020206940B1012222EA000058F8A3
:1014D000202022F0807248F8202088684FF4407263
:1014E000B94508EB800050F8043C08BF4FF4807207
:1014F00023F440731A4440F8042C486958F8042C2B
:10150000431EC2F3074293420BD9002358F8042C20
:10151000CFF6FF7322F47F0203EB0040104348F83C
:10152000040C58F8042C08680138D20758F8203009
:1015300023F0030228D10323B94508BF01231A432E
:1015400048F82020486860B108EB80003022B94597
:1015500050F8043C08BF102223F020031A4340F83F
:10156000042CC868C20327D4B0B30122B94522EACB
:1015700000004FF0A06258F8203023F0E06308BF6D
:101580004FF0807225E000BF42F0010248F82020B1
:10159000486840B108EB8000012350F8042C63F345
:1015A000051240F8042CC868C20329D4A8B34FF030
:1015B00080726FF0E06427E00122B94522EA000062
:1015C0004FF4A02258F8203008BF4FF4803223F4A3
:1015D000E0231A4448F820200869C1032AD40028CF
:1015E00042D00121B94521EA00004FF0E06158F8EE
:1015F000202022F0E06208BF4FF0407127E000BFDA
:101600004FF480326FF4E024012323EA000058F8FD
:10161000203023401A4348F820200869C10319D418
:1016200010B30121032221EA000058F8201062F3D0
:101630001A6117E00121B94521EA00004FF4E021C9
:1016400058F8202008BF4FF4403122F4E022114422
:1016500008E000BF0121032221EA000058F8201011
:1016600062F3124148F820105FEACE7006D15FEABB
:101670008E700AD400200DB0BDE8F08F386840F0BD
:10168000010038605FEA8E70F4D54AF20001C5F2BD
:101690000021086840F00100086000200DB0BDE89E
:1016A000F08F000000000000704700000000000004
:1016B0002DE9F04381B015460F460446FFF740F987
:1016C0002168D1F84880D1F81091226D042A39D1CF
:1016D0000646F868B0F5800F34D1086A800641D418
:1016E00097E80D10C1F88800C1F880203869C1F86A
:1016F0009000086820F04350184340EA0C0040F086
:1017000000500860E068B0F1806F04D0D1F80001AB
:1017100010F4E06F50D0C1F84880086A000750D438
:10172000002D3BD0681C13D1086A000749D4086A11
:1017300000075CBF086A5FEA007042D4086A0007CD
:10174000F2D53EE010206065012001B0BDE8F083D5
:10175000FFF7F6F8801BA84222D82168086A000724
:10176000F6D52EE0D5B1681C12D1086A8006B7D52F
:10177000086A800644BF086A5FEA8060B0D5086ADC
:101780008006F2D4ACE700BF2168086A8006A7D5BE
:10179000FFF7D6F8801BA842F6D901E0FFF7D0F892
:1017A0004FF400702065606D40F00100606501201D
:1017B00001B0BDE8F08300BFC1F81091086A0007CE
:1017C000AED50820486202202065002001B0BDE8A7
:1017D000F0830000000000007047000000000000DF
:1017E000F0B581B015460F460446FFF7A9F8216D04
:1017F0000646242908D0142918D002291BD1E068F4
:10180000B0F1806F17D004E0386840F00200032880
:1018100011D12068016A890612D400206065204633
:10182000394602F0E9FC38B301B0F0BD386820F069
:1018300001000228EDD010206065012001B0F0BD4C
:1018400025B3691C12D1016A8906E6D5016A8906A9
:1018500044BF016A5FEA8161DFD5016A8906F2D47B
:10186000DBE700BF2068006A8006D6D5FFF768F87E
:10187000801BA842F6D90BE0B86B98B138680228F3
:1018800034D0012838D0E0BB39E000BFFFF758F86A
:101890004FF400702065606D40F00100606501202C
:1018A00001B0F0BD2168086A80071AD475B3681CBE
:1018B0000ED1086A800714D4086A80075CBF086AE2
:1018C0005FEA80700DD4086A8007F2D509E000BF96
:1018D000FFF736F8801BA8421AD82168086A8007EB
:1018E000F6D5002002224A6201B0F0BD206D142816
:1018F00005D0242004E000BF206D242804D104205A
:101900002065002001B0F0BD1420F9E7FFF718F8BA
:101910004FF400702065606D40F001006065216843
:10192000012002224A6201B0F0BD00000000000068
:101930007047000000000000704700000000000039
:10194000B0B505460068016A4A0703682A6D0BD5E1
:1019500013F4802408D0282A38D0182A40D1296CC2
:10196000097880F8501035E08C0719D513F400344D
:1019700016D0282A46D1AA6C002A18BF11F47C512F
:1019800068D1A96C002963D102214162026822F466
:10199000E022026029652846BDE8B04000F09CBB0B
:1019A0000A0743D513F4002240D0082141620168A0
:1019B000490205D5016821F4102101600220286543
:1019C0002846BDE8B04000F08FBB00BF90F8500043
:1019D000296C0870286CA96C01302864481EA86422
:1019E000A86C28B12846BDE8B040FFF7A5BF00BFEE
:1019F0002868016821F4802101602846BDE8B040D4
:101A0000FFF79ABF022141620368082A23F4E0230A
:101A1000036029653CD0B2F5807F3FD0182A17D1EA
:101A20002846BDE8B04000F08BBC00BFCA0718BF15
:101A300013F480321AD1C9060AD513F4801107D0E5
:101A4000102141622846BDE8B04000F051BB00BF04
:101A5000B0BD00BF90F85000296C0870286CA96CCC
:101A600001302864481EA864B0BD00BF0121416256
:101A7000016821F4F81101600221696502685207CA
:101A800014D429652846BDE8B040FFF751BF00BF18
:101A90002846BDE8B040FFF79FBE00BF686D002834
:101AA000F0D12846BDE8B040FFF7FEBD016821F047
:101AB00004010160E86C44F2D931C0F6000181658F
:101AC000FEF7DEFF002808BFB0BD022028652846CB
:101AD000BDE8B040FFF72CBFF0B581B00446FEF77B
:101AE0002FFF002C00F08980054600206065216DE5
:101AF00011B101B0F0BD00BF204600F081F82068B0
:101B000041F28836A6654FF6F40ED4E903C2636944
:101B10008168CFF6E00E0027CFF6FF7701EA0E01CD
:101B200007EB024241EA0C016FF0FF0E676B1143B5
:101B30000EEB03223943E369114319438160C16805
:101B4000226A21F4E0211143C160216BA26B42EAB9
:101B500001410161E16B41610168626821F4F85162
:101B60000EEB022211430160016A890609D500BF0C
:101B7000FEF7E6FE401BB04238D82068016A8906AD
:101B8000F6D4C168A268D4E9097621F0FF01013FCB
:101B9000A3693943C160022B016821F0400141EA89
:101BA00002010160D0F80811E26A21F0A04141EA87
:101BB000060141EA0201C0F80811016841F0010183
:101BC000016003D1816841F002018160E068B0F1F9
:101BD000806F05D101202065002001B0F0BD00BF5D
:101BE00002202065002001B0F0BD00BF4FF400705E
:101BF0002065606D40F001006065012001B0F0BD1E
:101C00002DE9F04FB3B06946804601F10800B021DC
:101C1000FEF704FD45F20001D8F80000C5F20021EE
:101C2000884203D033B0BDE8F08F00BF4FF00070A2
:101C3000009068460024019400F012FD08B1FEF700
:101C400053FD44F2E04040F6004AC5F60200C5F6F6
:101C5000020A0AF540672EAE50F80C1C4FF0020B3A
:101C600041F4001140F80C1C50F80C1C032501F441
:101C700000112E912E9950F80C1C41F4804140F82F
:101C80000C1C50F80C1C4FF0090901F480412E91F6
:101C90002E99016841F040010160016801F04001A6
:101CA0002E912E99016841F008010160016801F050
:101CB00008012E912E99016841F010010160016820
:101CC00001F010012E912E99016841F02001016070
:101CD000016801F020012E912E99016841F0020166
:101CE00001600068314600F002002E902E984FF4FB
:101CF00000702E903846CDE92FB43195CDF8C890BC
:101D0000FEF71AFDB0203146CDE92E0B0A203290A5
:101D10005046CDE93045FEF70FFD04203146CDE9B0
:101D20002E0B30A880E830020AF58060FEF704FD33
:101D300040203146CDE92E0B0A2032903846CDE9BD
:101D40003045FEF7F9FC4FF460503146CDE92E0BDB
:101D500030A880E830025046FEF7EEFC4FF4806079
:101D60003146CDE92E0B30A880E830020AF500603C
:101D7000FEF7E2FC04203146CDE92E0B0A2032901A
:101D8000AAF50060CDE93045FEF7D6FC42F680406A
:101D90004021C2F20000C5F2002101601621C0E915
:101DA0000114C0E90344C0F814B00821C0E90614C6
:101DB00004624FF0007141620121C0E90A14C0E9D8
:101DC0000C448463FEF798FF08B1FEF78DFC42F6E1
:101DD00080450021C2F2000500222846FEF768FE79
:101DE00008B1FEF781FC5C2008210022C8F84C50A5
:101DF000C5F84080FFF708F95C20FFF7F5F833B02D
:101E0000BDE8F08F000000002DE9F04115460F46B7
:101E10000446FEF795FD26688046002FB06CD6F884
:101E2000101143D0226D042A46D1326C01230132B5
:101E3000A264A26C62642764326863F31D7232602C
:101E4000E268B2F1806F04D0D6F8002112F4E06F9E
:101E50005CD0B064002D5DD0681C33D13046016A7F
:101E600011F0060F08D00FE0016A11F0060F0BD138
:101E7000016A11F0060F07D1016A11F0060F04BFC5
:101E8000016A11F0060FEFD096F850003870206C00
:101E9000A16C471C2764481EA064A06C00284FD08A
:101EA0002068016A11F0060FE6D0EDE708206065B2
:101EB0000120BDE8F08100BF102060650120BDE871
:101EC000F08100BF3046006A10F0060F0CD100BF51
:101ED000FEF736FDA0EB0800A84259D82068006A3A
:101EE00010F0060FF4D0276C96F850003870206C74
:101EF000A16C471C2764481EA064A06C00B3206836
:101F0000006A10F0060FEFD1E2E700BFC6F810112B
:101F1000002DA1D1306A10F0060F37D096F850008E
:101F20003870206CA16C471C2764481EA064A06C0C
:101F300030B12068006A10F0060FEFD126E000BF34
:101F40002068016A89071BD405B3691C0ED1016A98
:101F5000890715D4016A89075CBF016A5FEA81714C
:101F60000ED4016A8907F2D50AE000BFFEF7E8FC4B
:101F7000A0EB0800A8420BD82068016A8907F5D5B4
:101F80000221416200202165BDE8F081FEF7D8FC06
:101F90004FF400702065606D40F001006065012025
:101FA000BDE8F081000000002DE9F04381B0036836
:101FB0000446186CD3F84890D3F8108191B30A46C0
:101FC000216D042936D10130A064A06C60642264C4
:101FD00001211868002561F31D7018600320586204
:101FE00028202065E06C44F21941C0F6000140F25F
:101FF0000336416444F24141C0F600014165016885
:102000008565056A0F69802D27EA06070F6119D0DB
:10201000402D1FD045BB0F6940F60C46B74308372B
:102020001EE000BF082060650125284601B0BDE81C
:10203000F08300BF012510206065284601B0BDE88F
:10204000F08300BF0F6940F60C46B74307F6080758
:1020500006E000BF0F6940F60C46B74307F58167FD
:102060000F61002505E000BF616D012541F004010D
:10207000616503F15001636C01270097FEF7BCFE18
:1020800040B104206065022020650125284601B08A
:10209000BDE8F0832068E168B1F1806F026842F426
:1020A0008031016006D1C0F84890284601B0BDE8F3
:1020B000F08300BFD0F8001111F4E06F06D0C0F833
:1020C0004890284601B0BDE8F08300BFC0F81081F9
:1020D000284601B0BDE8F08345F2E820C2F20000D6
:1020E0000BF032BA00000000704700000000000052
:1020F00070470000000000002DE9F04115460F4632
:102100000446FEF71DFCAFB380462668206D042808
:1021100036D1306C00F10100A064A06C60642764CB
:10212000306820F04050306085B3681C42D13046A2
:10213000016A490706D50CE0016A490709D4016A1A
:10214000490706D4016A49075CBF016A5FEA417129
:10215000F2D5387886F85000206CA16C471C2764B3
:10216000481EA064A06C002844D02068016A49077A
:10217000E8D5EEE7082060650120BDE8F08100BFEA
:10218000102060650120BDE8F08100BF306A400783
:1021900056D500BF387886F85000206CA16C471CDB
:1021A0002764481EA064A06C20B32068006A400722
:1021B000F0D445E03046006A40070AD4FEF7C0FB81
:1021C000A0EB0800A8423DD82068006A4007F5D57A
:1021D000276C387886F85000206CA16C471C276467
:1021E000481EA064A06C28B12068006A4007E5D5AD
:1021F000EFE700BF2068016A89071BD405B3691C9B
:102200000ED1016A890715D4016A89075CBF016A8A
:102210005FEA81710ED4016A8907F2D50AE000BF36
:10222000FEF78EFBA0EB0800A8420BD82068016ADD
:102230008907F5D50221416200202165BDE8F081C2
:10224000FEF77EFB4FF400702065606D40F00100EA
:1022500060650120BDE8F08170B582B00268044677
:10226000106C89B3236D042B34D10130A064A06CB1
:102270006064216444F219431068C0F6000320F042
:10228000405010600320506218202065E06C00254B
:1022900040F60C4E436444F241430668C0F6000326
:1022A00043658565C569D6F810C0202D2CEA0E035C
:1022B000336115D0102D1BD025BB336940F2033597
:1022C000AB4302331AE000BF0820606501252846B1
:1022D00002B070BD012510206065284602B070BDB7
:1022E000336940F20335AB4303F2022306E000BF3B
:1022F000336940F20335AB4303F581733361002545
:1023000005E000BF636D012543F0040363655032AF
:10231000636C01260096FEF76FFD38B104206065FE
:10232000022020650125284602B070BD20680168A2
:1023300041F480310160284602B070BD0000000009
:1023400045F20430C2F201000BF0FEB800000000BC
:1023500070B544F60C060446C5F6020631683068CE
:1023600001F00701062913D120F03F00204330601F
:10237000FEF7E6FA054600BF56F8080C80040DD4B7
:10238000FEF7DEFA401BB0F57A7FF5D9012070BD6B
:1023900000F03F00001B18BF012070BDA4F11D011B
:1023A0000020112914D8012202FA01F111F0031FB3
:1023B0000ED0FEF7C5FA0446306800F0110011286F
:1023C00008D0FEF7BDFA001BB0F57A7FF4D90120E2
:1023D00070BD00BF002070BD80B500F0F5FF44F275
:1023E00020414EF67022C5F60201C0F600020968CF
:1023F000C1F30211515C01F01F01C84080BD000013
:1024000080B544F2384EC5F6020E5EF8103C5EF818
:10241000101CC1F3053C5EF80C1CBCF1000FDEF88B
:10242000042015D0C1F30011C2F3CC02514300EED9
:10243000101A03F003010229B8EE400A0ED089B940
:102440005EF8381C890611D49FED361A1CE000BFD7
:1024500000218160C0E9001180BD00BF9FED301AEE
:1024600012E000BF9FED2D1A0EE000BF5EF8381C91
:1024700049F20002C0F2D032C1F3C10122FA01F1E7
:1024800001EE101AB8EE411ADEF800109FED263A60
:102490006FF35F2102EE101ADEF80010C1F346213F
:1024A000B8EE422A00EE032A00EE10CAB7EE003A58
:1024B000B8EE400A81EE000A32EE031A02EE101A5C
:1024C000B8EE422A20EE010A32EE031A80EE011A1B
:1024D000BCEEC11A80ED001ADEF80010C1F306410F
:1024E00001EE101AB8EE411A31EE031A80EE011A0D
:1024F000BCEEC11A80ED011ADEF80010C1F30661CE
:1025000001EE101AB8EE411A31EE031A80EE010AFC
:10251000BCEEC00A10EE101A816080BD0024744A1F
:1025200020BCBE4B0024744C0000003900000000A9
:1025300080B544F2404EC5F6020E5EF8183C5EF8D7
:10254000181CC1F3055C5EF8141CBCF1000FDEF82A
:10255000042015D0C1F30021C2F3CC02514300EE98
:10256000101A03F003010229B8EE400A0ED089B90F
:102570005EF8401C890611D49FED361A1CE000BF9E
:1025800000218160C0E9001180BD00BF9FED301ABD
:1025900012E000BF9FED2D1A0EE000BF5EF8401C58
:1025A00049F20002C0F2D032C1F3C10122FA01F1B6
:1025B00001EE101AB8EE411ADEF800109FED263A2F
:1025C0006FF35F2102EE101ADEF80010C1F346210E
:1025D000B8EE422A00EE032A00EE10CAB7EE003A27
:1025E000B8EE400A81EE000A32EE031A02EE101A2B
:1025F000B8EE422A20EE010A32EE031A80EE011AEA
:10260000BCEEC11A80ED001ADEF80010C1F30641DD
:1026100001EE101AB8EE411A31EE031A80EE011ADB
:10262000BCEEC11A80ED011ADEF80010C1F306619C
:1026300001EE101AB8EE411A31EE031A80EE010ACB
:10264000BCEEC00A10EE101A816080BD0024744AEE
:1026500020BCBE4B0024744C000000390000000078
:102660002DE9F0470446C07844F22C480007C5F62F
:10267000020833D5606E4FEA305103290CD8DFE8E9
:1026800001F003111D2600BFD8F8001041F40031FD
:10269000C8F800101BE000BF01266078C0070BD00F
:1026A00020E000BF04F10800022101F015FF0646FA
:1026B00060B16078C00715D1354646E004F12800C6
:1026C000022101F09DFF06460028F2D1606ED8F885
:1026D000241021F440110843C8F824000026607833
:1026E000C007E9D0A06D04280ED83546DFE800F019
:1026F0000412181E1E0000BFD8F80000354640F432
:102700000030C8F8000011E001250127607840077B
:102710001FD453E004F10800002101F0DDFE04E0C5
:1027200004F12800002101F06BFF05462F461DB182
:10273000607840070DD441E0D8F82400A16D20F066
:10274000070000250843C8F8240037466078400792
:1027500034D5D4F8A4004FEA705005280CD8DFE82F
:1027600000F00311171D1D1DD8F8000040F40030C3
:10277000C8F8000012E000BF0125012660780007BC
:1027800020D455E004F10800002101F0A5FE04E08A
:1027900004F12800002101F033FF05462E461DB14B
:1027A000607800070ED443E0D8F82C00D4F8A410C9
:1027B00020F4600000250843C8F82C003E466078ED
:1027C000000735D5D4F8A8004FEA306005280DD8A9
:1027D000DFE800F00412181E1E1E00BFD8F800002B
:1027E00040F40030C8F8000012E000BF01250127C6
:1027F000E078800720D44EE004F10800002101F0C9
:102800006BFE04E004F12800002101F0F9FE05460A
:102810002F461DB1E07880070ED43CE0D8F82C009C
:10282000D4F8A81020F0E06000250843C8F82C0078
:102830003746E07880072ED5E06C4FEA3010032849
:102840000ED8DFE800F00903130900BFD8F8000034
:1028500040F40030C8F800002E467DB912E000BFF9
:10286000012501266078C00619D44CE004F1080067
:10287000022101F031FE05462E461DB16078C006EA
:102880000DD440E0D8F82000E16C20F030000025A5
:102890000843C8F820003E466078C00633D5E06D96
:1028A0004FEA303004280DD8DFE800F00412181E7B
:1028B0001E0000BFD8F8000040F40030C8F8000047
:1028C00012E000BF01250127607880061FD44EE08A
:1028D00004F10800002101F0FFFD04E004F12800EC
:1028E000002101F08DFE05462F461DB1607880065F
:1028F0000DD43CE0D8F82400E16D20F4E040002540
:102900000843C8F824003746607880062FD5206E2B
:102910004FEA3040052809D8DFE800F0040E14041F
:10292000040400BF2E46ADB918E000BF0125012602
:10293000607840061FD44FE004F10800012101F047
:10294000CBFD04E004F12800012101F059FE054609
:102950002E461DB1607840060DD43DE0D8F8240025
:10296000216E20F4E02000250843C8F824003E46EC
:102970006078400630D5D4F8AC004FEA30700528B6
:1029800008D8DFE800F0030D130303032F46ADB9A9
:1029900018E000BF012501276078000620D442E03E
:1029A00004F10800012101F097FD04E004F1280082
:1029B000012101F025FE05462F461DB16078000675
:1029C0000ED430E0D8F82C00D4F8AC1020F0E04061
:1029D00000250843C8F82C0037466078000622D549
:1029E000E06E58B1B0F1005F0CD0B0F1805F2FD134
:1029F000D8F8000040F40030C8F800002E469DB919
:102A000008E000BF04F10800012101F065FD054662
:102A10002E464DB9D8F82400E16E20F04050002534
:102A20000843C8F824003E46E078C00733D0A06CC5
:102A3000032813D8DFE800F008021A08D8F80000CD
:102A400040F40030C8F80000A946BDB91AE000BF44
:102A500001250126E078C007E9D11CE001254FF0EF
:102A60000109A07840061AD51CE000BF04F1080057
:102A7000022101F031FD0546A9461DB1A0784006AE
:102A80000DD50FE0D8F82000A16C20F00300002540
:102A90000843C8F82000B146A078400602D44F464B
:102AA00018E000BFD8F8D40340F48070C8F8D4030D
:102AB000FDF746FF064600BFD8F8D403C00507D48B
:102AC000FDF73EFF801B6428F6D90325032701E0AC
:102AD0002F468DB12078C00761D0A06F4FEAF0007B
:102AE00005283BD8DFE800F004404604040400BF9A
:102AF000002D2E4646D149E0D8F84410D4F8B00055
:102B0000414011F4407F11D0D8F84410D8F8442047
:102B100042F48032C8F84420D8F8442021F44071AF
:102B200022F48032C8F84420C8F84410B0F5807F01
:102B300040F0CE82FDF704FF064641F2883A0325B5
:102B4000032700BFD8F84400800700F1BF82FDF7DB
:102B5000F7FE801B5045F5D9BCE700BF01250126D3
:102B6000207880071FD44CE004F10800012101F017
:102B7000B3FC04E004F12800012101F041FD054609
:102B80002E461DB1207880070DD43AE0D8F82800F1
:102B9000A16F20F0380000250843C8F828003E4601
:102BA000207880072DD5606F052809D8DFE800F070
:102BB000040E1404040400BF2F46ADB918E000BF92
:102BC00001250127207840071FD44DE004F10800BB
:102BD000012101F081FC04E004F12800012101F051
:102BE0000FFD05462F461DB1207840070DD43BE070
:102BF000D8F82800616F20F0070000250843C8F8C6
:102C000028003746207840072ED5D4F890000528B4
:102C100008D8DFE800F0030D130303032E46ADB917
:102C200018E000BF012601252078800620D451E05D
:102C300004F10800012101F04FFC04E004F1280038
:102C4000012101F0DDFC05462E461DB120788006ED
:102C50000ED43FE0D8F82C00D4F8901020F00700F4
:102C600000250843C8F82C003E462078800631D560
:102C7000D4F88C004FEA3070052809D8DFE800F05E
:102C8000040E1404040400BF2F46ADB918E000BFC1
:102C9000012701252078400620D451E004F10800E6
:102CA000002101F019FC04E004F12800022101F0E8
:102CB000A7FC05462F461DB1207840060ED43FE004
:102CC000D8F82800D4F88C1020F0E0400025084304
:102CD000C8F8280037462078400631D5D4F8980047
:102CE0004FEAB020052809D8DFE800F0040E1404EC
:102CF000040400BF2E46ADB918E000BF012601252F
:102D00002078000620D454E004F10800002101F0EE
:102D1000E3FB04E004F12800022101F071FC054608
:102D20002E461DB1207800060ED442E0D8F82C00C3
:102D3000D4F8981020F4E05000250843C8F82C007F
:102D40003E462078000634D5D4F89C004FEA703017
:102D500005280FD8DFE800F004141A04040400BFAB
:102D60002F46E5B12068010727D4C1063ED40003F1
:102D700055D475E00127012520680107F5D51CE031
:102D800004F10800002101F0A7FB04E004F1280091
:102D9000022101F035FC0546002D2F46E2D1D8F87E
:102DA0002C00D4F89C1020F4604000250843C8F89B
:102DB0002C00374620680107D7D5D4F88000B0F53D
:102DC000805F09D104F12800022101F019FC0028DC
:102DD00018BF0127D4F88000D8F8281021F44051FA
:102DE0000843C8F828002068C106C0D5D4F894006C
:102DF000B0F5807F09D104F12800022101F000FC28
:102E0000002818BF0127D4F89400D8F82C1021F41A
:102E100040710843C8F82C002068000320D5D4F87E
:102E2000A000B0F5003F0FD0B0F5803F06D078BBD2
:102E300004F10800002101F04FFB04E004F1280038
:102E4000022101F0DDFB05462E4655B9D8F82C00CD
:102E5000D4F8A01020F4403000250843C8F82C0016
:102E60003E46A07840072BD5D4F88400B0F5401F2B
:102E70000BD0B0F5001F11D0B0F5801F2AD1D8F8C3
:102E8000000040F40030C8F800002F46CDB90DE036
:102E900001260125A0784007E6D411E004F12800BE
:102EA000012101F0ADFB05462F4655B9D8F82800A1
:102EB000D4F8841020F4401000250843C8F82800F6
:102EC0003746A078C0070AD13E462168880016D54B
:102ED00033E000BF01270125A078C007F4D0206DA2
:102EE000B0F5803F10D018BBD8F8000040F4003097
:102EF000C8F800002E4685B1216888001DD460689E
:102F00008A0326D465E000BF04F10800022101F025
:102F1000E3FA0546002D2E46EED1D8F82000216DAB
:102F200020F4803000250843C8F82000CCE700BF1B
:102F30000126012521688800E1D504F1280002213D
:102F400001F05EFB002818BF0126D4E900108A03B7
:102F50003FD5E26F6FF0010303EB3223022B0BD35B
:102F60004FEA322343B1012B40F0AA80D8F8003059
:102F700043F40033C8F8003025B3CA022CD48A02C7
:102F800034D44A003CD4CA0F49D1090251D4C107F4
:102F90005AD1810763D441076CD4010776D4C106A6
:102FA00000F18080800607D504F12800022101F09D
:102FB00027FB002818BF0125002D18BF0125284632
:102FC000BDE8F087D8F8283023F440731A43C8F8D6
:102FD00028203546CA02D2D5D8F82420236F22F003
:102FE00000421A43C8F824208A02CAD5D8F82420FF
:102FF000A36E22F080721A43C8F824204A00C2D57A
:1030000058F81C2C22F4004248F81C2CD4F8B420A8
:1030100058F81C3C1A4348F81C2CCA0FB5D0D8F8F5
:103020002020636D22F040521A43C8F82020090284
:10303000ADD5D8F82810D4F8882021F440011143E8
:10304000C8F82810C107A4D004F10800002101F03D
:1030500043FA002818BF0546606881079BD504F134
:103060000800012101F038FA002818BF0546606801
:10307000410792D504F10800022101F02DFA002841
:1030800018BF0546606801077FF589AF04F1280085
:10309000002101F0B5FA002818BF05466068C10696
:1030A0007FF580AF04F12800012101F0A9FA002882
:1030B00018BF0546606880067FF57EAF74E700BFE5
:1030C0000125CA027FF55BAF86E700BFD4F8B000E8
:1030D0004FF6CF7358F81C2CC0F2FF0300F4407178
:1030E00022F47C5203EA10136FF31F30B1F5407FD6
:1030F00008BF1A43002548F81C2CD8F84410084390
:10310000C8F84400FFF7CBBC2DE9F04381B000289C
:1031100000F02A8142F200080446C5F200288946E0
:10312000D8F8000000F00F0088420ED2D8F8000056
:1031300020F00F0040EA0900C8F80000D8F80000AD
:1031400000F00F00484540F00F81206844F2184716
:103150004107C5F602070AD521693A6802F07002F4
:10316000914204D93A6822F0700211433960010794
:103170000AD561697A6802F07002914204D97A68CE
:1031800022F0700211437960C1060AD5A1697A68FC
:1031900002F4E062914204D97A6822F4E0621143B9
:1031A000796081060AD5E169BA6802F0700291423D
:1031B00004D9BA6822F070021143B96010F002011C
:1031C0000AD0E2683B6803F00F039A4204D93B68D7
:1031D00023F00F031A433A60C20746D0386820F440
:1031E0007061D4E90102012841EA0201396009D085
:1031F00003280DD0022811D157F8181C890340F17B
:10320000B38010E057F8181CC90540F1AD800AE002
:1032100057F8181C890140F1A78004E057F8181CE2
:10322000490740F1A18057F8081C21F00701084325
:1032300047F8080CFDF784FB064641F2883500BFCD
:1032400057F8080C616800F03800B0EBC10F09D0E6
:10325000FDF776FB801BA842F2D9032001B0BDE840
:10326000F08300BF206800F0020151B1E1683A68C4
:1032700002F00F02914204D23A6822F00F02114389
:103280003960D8F8001001F00F0149450DD9D8F880
:10329000001021F00F0141EA0901C8F80010D8F828
:1032A000001001F00F0149455ED141070AD521699F
:1032B0003A6802F07002914204D23A6822F0700239
:1032C0001143396001070AD561697A6802F070021A
:1032D000914204D27A6822F0700211437960C106EB
:1032E0000AD5A1697A6802F4E062914204D27A6850
:1032F00022F4E0621143796080060AD5E069B9687A
:1033000001F07001884204D2B96821F070010843CD
:10331000B86000F0E1F839684EF670233A68C0F6FC
:103320000003C1F3032102F00F02595C9A5C01F023
:103330001F0120FA01F102F01F0040F2100221FAF1
:1033400000F0C2F20002106040F2080040F20C02ED
:10335000C2F20000C2F200020068116001B0BDE8D4
:10336000F043FDF739BB00BF012001B0BDE8F08399
:103370003F22026044F21842C5F6020252F8083CAD
:1033800003F007034360136803F4706383601368FA
:1033900003F00F03C360136803F070030361536805
:1033A00003F070034361536803F4E0638361926840
:1033B00002F07002C26142F20000C5F20020006813
:1033C00000F00F000860704780B500F085F844F207
:1033D00018414EF67023C5F60201C0F600030A68D4
:1033E000096801F00F01C2F30322595C9A5C02F0F4
:1033F0001F0220FA02F201F01F0040F2100122FA2F
:1034000000F0C2F20001086040F20C01C2F20001BB
:103410000A6080BD0000000080B500F05DF844F255
:10342000184C4EF67021C5F6020CC0F60001DCF80F
:103430000020DCF8003003F00F03C2F30322CB5C62
:103440008A5C02F01F02D04003F01F0240F210031A
:1034500020FA02F2C2F200031A6040F20C03C2F238
:1034600000031860DCF80400C0F30210085C00F0F0
:103470001F0022FA00F080BD80B500F02DF844F264
:10348000184C4EF67021C5F6020CC0F60001DCF8AF
:103490000020DCF8003003F00F03C2F30322CB5C02
:1034A0008A5C02F01F02D04003F01F0240F21003BA
:1034B00020FA02F2C2F200031A6040F20C03C2F2D8
:1034C00000031860DCF80400C0F30220085C00F080
:1034D0001F0022FA00F080BD44F20041C5F602014F
:1034E0000869C0F3C200032810D002282CD088BB82
:1034F0000868800649F20000C0F2D03058BF70471B
:103500000968C1F3C101C840704700BF8A6A886A70
:10351000C0F3051CC86ABCF1000F4B6B20D0C3F38D
:10352000CC0300F00100584302F00302022A00EE2F
:10353000100AB8EE400A15D0C2B90868800619D43E
:103540009FED281A23E000BF47F64000C0F27D102F
:10355000704700BF40F60010C0F23D00704700BF4A
:10356000002070479FED1E1A11E000BF9FED1B1A4F
:103570000DE000BF086849F20002C0F2D032C0F38B
:10358000C10022FA00F001EE100AB8EE411A086BF1
:103590009FED153A6FF35F2002EE100A086BC0F33F
:1035A0004620B8EE422A013000EE032A00EE10CA8F
:1035B000B7EE003AB8EE400A81EE000A32EE031A86
:1035C00020EE010A01EE100AB8EE411A80EE010A5F
:1035D000BCEEC00A10EE100A704700BF0024744A07
:1035E00020BCBE4B0024744C0000003900000000D9
:1035F000F0B581B0002800F0D5800446007844F290
:103600000046C007C5F6020622D12078800768D59B
:10361000306910F03801B06A42D0182908BF5FEA5B
:1036200080703DD0E0683168002800F0258121F0ED
:10363000190108433060FDF783F9054630684007FB
:1036400048D4FDF77DF9401B0228F7D977E100BF88
:10365000306900F03801B06A102905D018290BD163
:1036600000F00300022807D130688003CDD56068E0
:103670000028CAD196E000BF6068002800F03281BF
:10368000B0F5A02F00F04681B0F5803F00F04681F4
:10369000306820F480303060306820F4802040E1D1
:1036A00030684007E06801D500287BD0316821F000
:1036B000190108433060FDF743F9054630684007BB
:1036C00008D4FDF73DF9401B02284FF00300F5D95F
:1036D00001B0F0BD7068216920F0FE4040EA016051
:1036E00070602078C00619D5306900F03801B06AE2
:1036F000082906D0182940F0818000F00300012835
:103700007CD13068C00502D5E06980284AD1F068D4
:10371000216A20F07C5040EA0160F06020780007C8
:1037200044D42078800655D42078400700F17E806C
:10373000656A9DB3306900F03800182840F01481A4
:10374000012DB16A306B2DD001F00302A36A9A42B9
:1037500028D1C1F30511E26A914223D10146226BBF
:103760006FF35F21013A91421CD1C0F34622616B95
:1037700001398A4216D1C0F30642A16B01398A424F
:1037800010D1C0F30660E16B013988420AD1706B39
:10379000A16CC0F3CC00814240F09C81002001B0BC
:1037A000F0BD00BF012001B0F0BD00BF606900287E
:1037B000706F4FD040F001007067FDF7C1F805460B
:1037C000706F8007ADD4FDF7BBF8401B0228F7D916
:1037D000B5E000BFA0690028306871D040F4805087
:1037E0003060FDF7ADF80546306880049CD4FDF7E5
:1037F000A7F8401B0228F7D9A1E000BFE069002824
:10380000306800F09F8040F080003060FDF798F84D
:10381000054600BF3068C0053FF579AFFDF790F869
:10382000401B02284FF00300F4D951E7D6F80004FA
:1038300040F48070C6F80004FDF782F8054600BF2A
:10384000D6F80004C00529D4FDF77AF8401B642897
:10385000F6D974E020F001007067FDF771F80546B5
:10386000706F80077FF55DAFFDF76AF8401B022897
:103870004FF00300F4D92BE721F001003060FDF791
:103880005FF80546306840077FF52BAFFDF758F825
:10389000401B02284FF00300F4D919E7A068002864
:1038A00000F08480052800F09B80012800F09C80B7
:1038B000306F20F001003067306F20F0040096E098
:1038C00020F480503060FDF73BF8054630688004F6
:1038D0007FF52AAFFDF734F8401B02284FF00300B4
:1038E000F4D9F5E6306820F480303060306820F498
:1038F00080203060FDF724F8054600BF3068800363
:103900007FF583AEFDF71CF8401B64284FF00300E1
:10391000F4D9DDE6306840F480203060306840F44F
:1039200080303060FDF70CF8054600BF306880033A
:103930003FF56BAEFDF704F8401B6428F6D9032071
:1039400001B0F0BD20F080003060FCF7F9FF0546C3
:103950003068C0057FF5E2AEFCF7F2FF401B02289D
:103960004FF00300F4D9B3E6306820F08070306087
:10397000FCF7E6FF022D05460CD100BF3068800140
:1039800048D5FCF7DDFF401B02284FF00300F5D9B6
:103990009EE600BF306880017FF500AFFCF7D0FFE6
:1039A000401B02284FF00300F4D991E6306F20F05D
:1039B00001003067306F20F004003067FCF7C0FF73
:1039C000054641F28837306F80077FF5B1AEFCF7CE
:1039D000B7FF401BB8424FF00300F4D978E600BFB0
:1039E000306F40F004003067306F40F00100306706
:1039F000FCF7A6FF054641F2883700BF306F80070D
:103A00003FF596AEFCF79CFF401BB8424FF0030019
:103A1000F4D95DE604F12807B06A40F2F331884337
:103A20008ECF0843591E40EA02104FF47E426FF3D6
:103A30005F21B06202EB47204FF4FE0280B2E36BDD
:103A40000844A16B02EB01414FF0FE4201F4FE017C
:103A500002EB0362084402F0FE4108443063F06A5E
:103A60004FF6F87120F00100F062706BA26C884391
:103A700040EAC2007063F06A216C20F00C00084339
:103A8000F062F06A616C20F002000843F062F06AB4
:103A900040F48030F062F06A40F40030F062F06A86
:103AA00040F48020F062F06A40F00100F06230687B
:103AB00040F080703060FCF743FF044630688001BE
:103AC0003FF56CAEFCF73CFF001B02284FF00300F3
:103AD000F4D9FDE5F06A20F00100F062FCF730FF58
:103AE0000546FCF72DFFA842FBD0706B4FF6F8712E
:103AF000A26C884340EAC2007063F06A40F00100A3
:103B0000F062002001B0F0BD70470000000000002E
:103B10007047000000000000704700000000000037
:103B200060B310B5044690F83D0028B9002084F831
:103B30003C00204600F024F8022084F83D00206874
:103B4000211D00F0D1FE012084F8480084F83E00D9
:103B500084F83F0084F8400084F8410084F8420073
:103B600084F8430084F8440084F8450084F8460053
:103B700084F8470084F83D00002010BD0120704704
:103B8000704700000000000090F83D10012927D187
:103B9000022180F83D1001684DF6FF70C4F200006C
:103BA0008142C86840F00100C8601BDC40F2FF7031
:103BB000C4F2000081422DDD40F60000C4F2000096
:103BC00081423DD040F60040C4F20000814237D02F
:103BD00041F60000C4F20000814231D03CE000BF59
:103BE000012070474FF6FF70C4F2000081421BDDD8
:103BF0000020C4F20100814222D044F20000C4F24D
:103C0000010081421CD040F20040C4F20100814218
:103C100016D021E0B1F1804F12D040F20040C4F242
:103C2000000081420CD017E04EF20000C4F2000008
:103C3000814205D04EF20040C4F2000081420BD117
:103C400007228868C0F2010202400020062A18BF3D
:103C5000B2F5803F00D17047086840F0010008606D
:103C600000207047000000007047000000000000C6
:103C700010B5044600680169890744BFC1685FEA5E
:103C800081713FD40169490744BFC1685FEA41714E
:103C900044D40169090744BFC1685FEA01714BD48C
:103CA0000169C90644BFC1685FEAC16150D40169B6
:103CB000C9071CBFC1685FEAC17157D10169090614
:103CC00044BFC1685FEA016158D40169C90544BFB6
:103CD000C1685FEA016159D40169490644BFC168FE
:103CE0005FEA41615AD40169890646BFC1685FEA4B
:103CF000816110BD6FF0200101612046BDE81040D8
:103D0000FFF70ABF6FF0020101610121217780698D
:103D100080074BD02046FFF7A7FF4DE06FF004016E
:103D2000016102212177806910F4407F48D020464C
:103D3000FFF79AFF4AE000BF6FF00801016104211C
:103D40002177C069800745D02046FFF78DFF47E007
:103D50006FF01001016108212177C06910F4407FE4
:103D600042D02046FFF780FF44E000BF6FF0010122
:103D70000161204600F04CF820689FE76FF0800159
:103D800001612046FFF7C4FE20689EE76FF4807152
:103D900001612046FFF7B8FE20689DE76FF0400103
:103DA0000161204600F040F820689CE7204600F0C2
:103DB00027F8204600F028F800202077206861E7E7
:103DC000204600F01DF8204600F01EF80020207765
:103DD00020685EE7204600F013F8204600F014F853
:103DE0000020207720685BE7204600F009F8204695
:103DF00000F00AF800202077206858E70000000053
:103E00007047000000000000704700000000000044
:103E100041F200010068C4F20001884218BF7047F7
:103E2000FCF796BD00000000704700000000000095
:103E300090F88410012901D1022070472421C0F894
:103E4000881002681368116823F0005321F0010103
:103E500011600021416613602022C0F8882080F89C
:103E6000841008467047000070B590F88420012A3D
:103E700002D1022070BD00BF2422C0F88820026851
:103E8000D0F864E0BEF1000FD2F800C0136823F050
:103E900001031360936823F0606341EA03019160BA
:103EA0001AD091684EF6982E9368C0F6000E5B0FFC
:103EB0004EF6A025C1F34266C0F600051EF8034089
:103EC000E95C2301B3FBF1F11EF80630AE5D1B0186
:103ED000B3FBF6F302E000BF01210123A0F86A1052
:103EE0002021A0F86830C2F800C0C0F88810002176
:103EF00080F88410084670BD70B590F88420012ABF
:103F000002D1022070BD00BF2422C0F888200268C0
:103F1000D0F864E0BEF1000FD2F800C0136823F0BF
:103F200001031360936823F0604341EA0301916049
:103F30001AD091684EF6982E9368C0F6000E5B0F6B
:103F40004EF6A025C1F34266C0F600051EF80340F8
:103F5000E95C2301B3FBF1F11EF80630AE5D1B01F5
:103F6000B3FBF6F302E000BF01210123A0F86A10C1
:103F70002021A0F86830C2F800C0C0F888100021E5
:103F800080F88410084670BD10B5B0B10446D0F872
:103F9000880028B9002084F88400204600F028F822
:103FA0002420C4F888002068016821F00101016024
:103FB000204600F081FE012802D1012010BD00BF83
:103FC000A06A10B1204600F04BFD2068416821F442
:103FD00090414160816821F02A018160016841F0CF
:103FE000010101602046BDE8104000F0A9BD0000BD
:103FF000B0B5B4B06946044601F10800B021FCF741
:104000000DFB44F600012068C4F20001884201D093
:1040100034B0B0BD68460024019402250095FEF737
:104020001FFB08B1FCF760FB44F2E040C5F602005C
:10403000816841F480218160816801F480212F91A1
:104040002F99016841F00801016000682FA900F074
:1040500008002F902F984FF44070CDE92F050720CE
:10406000339040F60040C5F60200CDE93144FCF73C
:1040700063FB34B0B0BD00002DE9F04182B00446CE
:10408000D0F8880020283FD10E4600294FF00100CB
:104090004BD01746002A48D01D464FF00008C4F800
:1040A00090802120C4F88800FCF74AFCA4F85470E2
:1040B000A4F856700746A168B1F5805F0FD120695A
:1040C000002814BF3046B046064608E0206816F8BF
:1040D000011B8162B4F856000138A4F85600B4F808
:1040E0005600A8B18021002220463B46009501F0F1
:1040F0004FF8E8B9002EE9D138F8020B2168002604
:104100006FF35F208862E5E7022002B0BDE8F0812E
:104110004021002220463B46009501F039F820213D
:104120000028C4F8881018BF032002B0BDE8F08151
:104130002020C4F88800032002B0BDE8F081000010
:10414000FEE700000000000042F68040C2F20000DE
:10415000FCF7DEBC00000000B0B588B007A94FF442
:10416000006200234FF40065002409F021F818B123
:10417000022008B0B0BD00BF07984DF20972CDE92A
:1041800000050A200DA1CDE902000120059041F2B1
:10419000E470C0F60002C2F2000000230494B025CF
:1041A000069509F0DDF918B10E2008B0B0BD00BFCA
:1041B00004F066FB002008B0B0BD00BF46696C6526
:1041C000582061707020746872656164000000009E
:1041D00007F032BE00000000FEE700000000000013
:1041E000FEE700000000000042F6EC40C2F20000D2
:1041F000FDF7A6BB00000000F0B5036882681E68EA
:10420000002A26F040521A600ED00A68032A14D001
:10421000022A1BD103F5C07E03F5C47203F5C87CE6
:1042200003F5D0741AE000BF1A684E6822F08002CD
:1042300032431A600A68032AEAD103F5A07E03F527
:10424000A47203F5A87C03F5B07407E003F5807E43
:1042500003F5847203F5887C03F59074D1E9125656
:104260003543CEF80050CD6A6DB18D6A2560DEF819
:104270000040CD6A24F47C144E6B2C430D6B344308
:104280002C43CEF8004014684D6C24F01F042C43DE
:1042900014608A6B0AB10C68E4B1CD68CC6905B3CF
:1042A000DEF8006094B3002A48D04CF2C0002A43E4
:1042B000CFF2FF004D69224330402A430C6910437E
:1042C0004A6A20430C6A10430A6C20431043CEF81C
:1042D00000004FE0CC6B013C1C64CD68002DCC6924
:1042E000DED1002C4ED0002ADEF800004ED04CF279
:1042F000C0074E6ACFF2FF0722433F3732433840B0
:104300000F6A10430A6C3843104346E0002A4BD032
:104310004CF2C0004B69CFF2FF002A4300F57C50FD
:104320001A4330400B6910430A6C18431043CEF80F
:1043300000008868CCF800000020F0BD43F63F7212
:104340004F692C4326EA02023C430D6922434C6A22
:104350002A430D6A22432A43CEF80020C06AB0F1F6
:10436000805F07D14869082804D1DEF8000040F0DA
:104370000060ACE78868CCF8000088699864002089
:10438000F0BD00BF082141650120F0BD4A6A20F45C
:104390007C5022430F6A10433843CEF800008869EE
:1043A00098640020F0BD00BF4A6926F03F032A430D
:1043B0000C691A432243CEF80020C06AB0F1805F36
:1043C000B7D148690828B4D1DEF8000040F0006099
:1043D000ADE7000000000000006C00218164016D69
:1043E000B1F5807F08D101680A6A920608D40221DB
:1043F0000165FDF759B900BF02210165FDF798BAC3
:1044000002204862086840F400300860086840F004
:104410000200086070470000016C002200688A6496
:1044200009680A6822F004020A60C26822F00102E8
:10443000C260086840F40030086070470000000067
:1044400010B5046C0020A064042060652068016839
:1044500021F004010160216D11F00C0F18D00168EA
:1044600021F4F81101604FF480712165016849075A
:104470001CD4016A890628D502214162016841F4F1
:1044800000310160016841F00201016010BD00BF10
:1044900010216165016821F4E0210160022020659E
:1044A0002046BDE81040FDF743BA00BF016821F087
:1044B00004010160E06C44F2D931C0F6000181656D
:1044C000FCF7DEFA002808BF10BD02202065204658
:1044D000BDE81040FDF7E8B8F0B581B044F22C47D4
:1044E000C5F6020757F8042C02F00302032A03D191
:1044F000012001B0F0BD00BF054657F82C0C0C465A
:1045000020F0806047F82C0CFCF71AFA064600BF32
:1045100057F82C0C000105D5FCF712FA801B022875
:10452000F6D964E057F8040CEE6895E80E0020F424
:104530007C30012C40EA0130A2F101016FF35F21D0
:104540004FF47E4202EB432247F8040C92B24FF044
:10455000FE4302EB01004FF4FE012A6901EB064124
:1045600001F4FE0103EB0262084402F0FE4108443C
:10457000F8603868696920F0C00040EA01003860DE
:104580003868A96920F0200040EA010038603868E6
:104590004FF6F87120F0100038603869EA6920EAB7
:1045A00001004FF4001140EAC2003861386808BFCA
:1045B0004FF4801140F01000002C386008BF4FF419
:1045C000002138680843386057F82C0C40F08060B0
:1045D00047F82C0CFCF7B4F9044600BF57F82C0C34
:1045E000000107D4FCF7ACF9001B0328F6D3032025
:1045F00001B0F0BD002001B0F0BD000000000000DF
:10460000F0B581B044F22C47C5F6020757F8042CE8
:1046100002F00302032A03D1012001B0F0BD00BF64
:10462000054657F82C0C0C4620F0805047F82C0C0F
:10463000FCF786F9064600BF57F82C0C800005D51C
:10464000FCF77EF9801B0228F6D964E057F8040CC9
:10465000EE6895E80E0020F07C70012C40EA0150D5
:10466000A2F101016FF35F214FF47E4202EB43227E
:1046700047F8040C92B24FF0FE4302EB01004FF4F6
:10468000FE012A6901EB064101F4FE0103EB02621F
:10469000084402F0FE41084478613868696920F4F2
:1046A000406040EA010038603868A96920F4007071
:1046B00040EA0100386038684FF6F87120F48070E5
:1046C0003860B869EA6920EA01004FF0807140EA79
:1046D000C200B861386808BF4FF4000140F4807030
:1046E000002C386008BF4FF48001386808433860F8
:1046F00057F82C0C40F0805047F82C0CFCF720F9B0
:10470000044600BF57F82C0C800007D4FCF718F9BA
:10471000001B0328F6D3032001B0F0BD002001B038
:10472000F0BD000000000000B0B59CB044F61804D5
:10473000042000251195CDE90F55CDE90D55CDE9A2
:104740000B550895C5F60204CDE90655CDE904558B
:10475000CDE902550195FDF7FBFD0095206820F499
:1047600040402060206800F440400090009820689D
:10477000800409D4206880045CBF20685FEA804020
:1047800002D420688004F2D5012009904FF48031D2
:104790000A910221052214926822CDE915200420F5
:1047A0000824CDE9170109A81994CDE912110025B3
:1047B000CDE91A55FEF71CFF80B140F60004082130
:1047C000C5F6020401222046FCF7B2F80421204677
:1047D000FCF7A6F8C820FBF79BFFF7E73F20019006
:1047E00003204FF48061CDE9020540200494CDE917
:1047F0000500CDE9071001A80321FEF785FC88B16B
:1048000040F600040821C5F6020401222046FCF708
:104810008FF800BF04212046FCF782F8C820FBF780
:1048200077FFF7E71CB0B0BD4EF6885042F2000C9F
:10483000CEF20000C5F2002C026842F47002026061
:10484000DCF8000000F00F00062806D8DCF80000B5
:10485000072262F30300CCF8000044F200404EF659
:104860007F51C5F60200CEF6F621026842F0010241
:10487000026000220261036819400160DCF8001048
:10488000090706D5DCF80010072363F30301CCF811
:10489000001040F200218261C261C0F20221026276
:1048A00081620021C0F2FF11C16240F28021C0F29A
:1048B0000111016342638163C26301644264016860
:1048C00021F480210160026644F20000C5F200205C
:1048D00043F2D2010160704742F64850C2F2000034
:1048E000FFF7C6B90000000010B540F6FF32C4F271
:1048F0000002904202680FDCB0F1804F1DD040F200
:104900000043C4F20003984217D040F60003C4F2FB
:104910000003984211D014E040F60043C4F20003B3
:1049200098420AD040F20043C4F20103984204D0F6
:104930000023C4F20103984203D122F070024B68B5
:104940001A434EF2FF3343F6FF7CC4F20003C4F275
:10495000010C984214DD60452CDC4EF20043C4F299
:104960000003984243D00023C4F2010398423ED092
:1049700040F20043C4F20103984238D03BE000BF4C
:1049800040F2FF73C4F20003984227DD40F60003B3
:10499000C4F2000398422AD040F60043C4F2000358
:1049A000984224D04EF20003C4F2000398421ED075
:1049B00021E000BF44F20003C4F20103984216D084
:1049C00044F60003C4F20103984210D044F20043BD
:1049D000C4F2010398420AD00DE000BFB0F1804F4D
:1049E00005D040F20043C4F20003984203D122F400
:1049F0004072CB681A4322F080024C696045D1F8BE
:104A000000E08B6842EA04020260C362C0F828E05A
:104A100014DD44F20002C4F20102904219D044F6BF
:104A20000002C4F20102904213D044F20042C4F2E8
:104A3000010290420DD00121416110BD0022C4F25B
:104A40000102904205D040F20042C4F201029042BD
:104A5000F1D1096901630121416110BD000000002D
:104A6000816ACA070CD18A0715D44A071ED40A07DF
:104A700027D4CA0630D48A0639D44A0655D541E02F
:104A80000268D0F82CC0536823F4003343EA0C03C7
:104A900053608A07E9D50268D0F830C0536823F420
:104AA000803343EA0C0353604A07E0D50268D0F82C
:104AB00034C0536823F4802343EA0C0353600A078D
:104AC000D7D50268D0F838C0536823F4004343EACE
:104AD0000C035360CA06CED50268D0F83CC0936878
:104AE00023F4805343EA0C0393608A06C5D5026819
:104AF000D0F840C0936823F4005343EA0C0393605A
:104B00004A0612D50268D0F844C0BCF5801F53682D
:104B100023F4801343EA0C03536006D1536823F453
:104B2000C00C836C43EA0C035360090658BF7047FE
:104B30000168C06C4A6822F4002210434860704744
:104B4000B0B582B004460020C4F89000FBF7F8FE30
:104B5000216805460A68120737D54FF40011002274
:104B60006FF07E40009020462B4600F011FB58B3BA
:104B7000206850E8000F216820F0800041E8000222
:104B8000F2B1206850E8000F216820F0800041E871
:104B90000002002A1FBF206850E8000F216820F0A3
:104BA00080001CBF41E80002002A09D0206850E8BC
:104BB000000F216820F0800041E80002002AD7D1D0
:104BC0002020C4F8880062E021680868400765D5A5
:104BD0004FF4800100226FF07E40009020462B466B
:104BE00000F0D6FA002859D0206850E8000F21685C
:104BF00020F4907041E80002F2B1206850E8000F04
:104C0000216820F4907041E80002002A1FBF20684C
:104C100050E8000F216820F490701CBF41E80002AA
:104C2000002A09D0206850E8000F216820F4907015
:104C300041E80002002AD7D1206850E8020F21681D
:104C400020F0010041E80202F2B1206850E8020FB2
:104C5000216820F0010041E80202002A1FBF2068FD
:104C600050E8020F216820F001001CBF41E8020259
:104C7000002A09D0206850E8020F216820F00100C6
:104C800041E80202002AD7D12020C4F88C0003207A
:104C9000002184F8841002B0B0BD00BF2020C4F809
:104CA0008800C4F88C000020E0662067002184F8AA
:104CB000841002B0B0BD000070B584B00446006836
:104CC00004F1080340F6004EE669C5F6000E0ECB6F
:104CD000194363690B4346F6F3110568CCF6FF717F
:104CE000334329401943016041684FF2FF4321F4E7
:104CF0004051704541EA02014160A269C1F2FF13CF
:104D00001CBF216A0A43816844F2544C1940C5F61D
:104D1000020C1143816047F6FF32C16AC4F20002FF
:104D200021F00F01656A90424FF0800341EA0501CE
:104D3000C16219DD41F2FF71C4F2010188422DDC2C
:104D400047F60041C4F20001884257D041F2000109
:104D5000C4F20101884239D041F20041C4F201019C
:104D6000884233D057E000BF44F6FF31C4F200015F
:104D7000884237DD44F60041C4F2000188423DD04C
:104D800045F20001C4F20001884237D047F6000125
:104D9000C4F20001884231D03DE000BF41F600017D
:104DA000C4F20101884211D041F60041C4F2010170
:104DB00088420BD070452ED1DCF8041001F00702B8
:104DC000062A80F081800FF2BC3122E0DCF800106E
:104DD000C1F3C202062A80F077804EF66A21C0F63F
:104DE000000116E044F20041C4F20001884205D0FF
:104DF00044F60001C4F2000188420CD1DCF8001036
:104E000001F00702062A80F05F804EF66421C0F6AA
:104E100000018B181B78704540F60010C0F23D0071
:104E200000F05A80B6F5004F40F08480402B4FF0E0
:104E3000010100F29E81DFE813F0410019019C019D
:104E40009C011F019C019C019C0127019C019C016C
:104E50009C019C019C019C019C012F019C019C01D7
:104E60009C019C019C019C019C019C019C019C015A
:104E70009C019C019C019C019C013F019C019C01A7
:104E80009C019C019C019C019C019C019C019C013A
:104E90009C019C019C019C019C019C019C019C012A
:104EA0009C019C019C019C019C019C019C019C011A
:104EB0009C019C019C019C019C013D01FEF7ACFA08
:104EC000002840F0D680E5E08023704540F60010D1
:104ED000C0F23D007FF4A6AF9A1E01211E2A00F207
:104EE0007780DFE812F01F0046017B004601460193
:104EF000460183004601460146014601460146013E
:104F000046018D0046014601460146014601460123
:104F10004601460146014601460146014601460159
:104F200046019A00FDF758FA002800F06680656A8D
:104F300073E000BF402B4FF0010100F21A81DFE85F
:104F400013F04100D90018011801DF001801180101
:104F50001801E700180118011801180118011801BB
:104F60001801EF00180118011801180118011801A3
:104F70001801180118011801180118011801180169
:104F80001801FF0018011801180118011801180173
:104F90001801180118011801180118011801180149
:104FA0001801180118011801180118011801180139
:104FB0001801180118011801180118011801180129
:104FC0001801FD00FEF728FA002840F09680A5E0C1
:104FD000402B40F0CE804FF400401EE001A8FDF7CA
:104FE0000FFA029800287FF4A2AF06E001A8FDF7AF
:104FF0009FFA029800287FF49AAF0021B9E000BF21
:105000005CF8540C800649F20000C0F2D03004D5A0
:105010005CF8541CC1F3C101C8404EF6802162689F
:10502000C0F6000131F81510B0FBF1F002EB4201BF
:1050300088424FF00101C0F09C801303984200F2B7
:105040009880010E0023000210EB520041F1000194
:10505000FBF79AFA4FF60052A0F54071C0F20F022A
:105060009142C0F08080012183E000BFFEF704FA86
:1050700080B1656A20E000BF01A8FDF7C1F9029880
:105080000028F6D106E000BF01A8FDF751FA02980A
:105090000028EED100216CE05CF8540C800649F247
:1050A0000000C0F2D03007D55CF8541CC1F3C10138
:1050B000C84001E04FF400404EF68021C0F60001E8
:1050C00031F81510B0FBF1F061684A0802EB4000BE
:1050D0004FF6EF72B0FBF1F0A0F11001914207D84A
:1050E0004FF6F0710140C0F3420008443BE000BFBE
:1050F00001213EE0FEF7C0F980B1656A20E000BF03
:1051000001A8FDF77DF902980028F6D106E000BF5E
:1051100001A8FDF70DFA02980028EED1002128E041
:105120005CF8540C800649F20000C0F2D03007D57C
:105130005CF8541CC1F3C101C84001E04FF40040C9
:105140004EF680216268C0F6000131F81510B0FB00
:10515000F1F000EB5200B0FBF2F0A0F110014FF6BD
:10516000EF72914204D82168C860002101E000BFBD
:1051700001214FF00110A0660020C4E91D0008467F
:1051800004B070BD020408102040000000000000C0
:105190002DE9F041044600680D46C7693940491BB6
:1051A000B1FA81F14909914229D1DDF81880B8F1AD
:1051B000000F27D0164618F1010129D1C1692940F5
:1051C000491BB1FA81F14909B14218D1C16929409D
:1051D000491BB1FA81F14909B14201BFC1692940B6
:1051E000491BB1FA81F104BF4909B14207D1C16934
:1051F0002940491BB1FA81F14909B142DED00020B2
:10520000BDE8F081FBF79CFB0320BDE8F08100BF07
:105210001F4607E0C0692840401BB0FA80F04009F3
:10522000B042ECD1FBF78CFBC01B40450ED8206888
:1052300001684907EED5C16909070BD4C1690905A1
:10524000E8D54FF40061016291E000BF0320BDE8A2
:10525000F08100BF0821016201E000BF206850E832
:10526000000F216820F4907041E80002EAB1206844
:1052700050E8000F216820F4907041E80002A2B1CC
:10528000206850E8000F216820F4907041E8000287
:10529000002A1FBF206850E8000F216820F490709A
:1052A0001CBF41E80002002AD8D14FF6FE70CEF6AE
:1052B000FF70216851E8021F2268014042E8021392
:1052C000DBB1216851E8021F2268014042E8021365
:1052D000002B1FBF216851E8021F226801401CBF3C
:1052E00042E80213002B08D0216851E8021F22680F
:1052F000014042E80213002BDBD1E06E012827D1E8
:10530000206850E8000F216820F0100041E80002FA
:10531000F2B1206850E8000F216820F0100041E849
:105320000002002A1FBF206850E8000F216820F00B
:1053300010001CBF41E80002002A09D0206850E894
:10534000000F216820F0100041E80002002AD7D1A8
:105350002020C4F88C000020E06660670821C4F8B3
:10536000901084F884000120BDE8F081206850E8A6
:10537000000F216820F4907041E80002EAB1206833
:1053800050E8000F216820F4907041E80002A2B1BB
:10539000206850E8000F216820F4907041E8000276
:1053A000002A1FBF206850E8000F216820F4907089
:1053B0001CBF41E80002002AD8D14FF6FE70CEF69D
:1053C000FF70216851E8021F2268014042E8021381
:1053D000DBB1216851E8021F2268014042E8021354
:1053E000002B1FBF216851E8021F226801401CBF2B
:1053F00042E80213002B08D0216851E8021F2268FE
:10540000014042E80213002BDBD1E06E012827D1D6
:10541000206850E8000F216820F0100041E80002E9
:10542000F2B1206850E8000F216820F0100041E838
:105430000002002A1FBF206850E8000F216820F0FA
:1054400010001CBF41E80002002A09D0206850E883
:10545000000F216820F0100041E80002002AD7D197
:105460002020C4F88C000021E1666167C4F8900038
:10547000032084F88410BDE8F081000000000000E3
:10548000FEE70000000000002DE9F04F8FB0074656
:105490000C46116800200E90D7F868014FEA4118B9
:1054A0000C9300F10100C7F8680114B9786E002868
:1054B00076D0D7F82890786D00FB09FABAF1000F82
:1054C00020D00992B8FBFAF20B910D9214B3216D22
:1054D000D1B1656D954217D8D4E910C2D4E916361A
:1054E000724083EA0C031A430D9A0DD1A36C226E0D
:1054F0009A420D9A08D1002222650D9A95420A948B
:105500000DD328E0022787E3616B002595420A94BA
:1055100021D204E0796F002595420A941BD242F211
:10552000A8400EAE07EB000B0229C0F0F581DBF8B6
:105530000000814280F0F081384632463C4603F05C
:10554000FFFA002840F0EE8101350D9A95420E9940
:105550002746E9D1786D02FB1A853B6D8A1E3E46CF
:10556000B5FBF9F4234400FB023BB8680122CDE906
:10557000000200230320029038465A468A4604F06F
:105580006FFB0746002840F04783B06A0894CDF8C7
:1055900014A0B446B5FBF0F101FB1059002026E041
:1055A000B86A0B91B96C0023B8FBF0F001EB000B6B
:1055B0000120CDE90924BA683D46CDE90020032049
:1055C000029038465A4604F04BFB0746002840F04C
:1055D0002383A96A0020AA6CAC46A2EB0B0202FB53
:1055E00001890021059100210D91002108910C9D58
:1055F000DCF8081001EB0906002168642846C5F8AC
:1056000040B0D5F800A0C5F84890A96100F8041F83
:10561000F17A0F2902D13178E52913D1DDF828B0CC
:105620004FF0010E0020686100208AF800003278F7
:10563000002A00F05B82202A18D02E2A18D10221DD
:1056400017E000BF01F01F080D2108FB01F1CDF8A4
:1056500018B0CDF81080A1F10D02FE2A36D9C5F898
:1056600018804FF0010EDDF828B0A8E0012103E01A
:10567000002101208AF800207278002A00F036828A
:105680002E2A05D0202A07D1002908BF01210EE0CB
:1056900002212E2208E000BF012905D12E210AF89F
:1056A00000107278013002210AF800200130B2782F
:1056B000002A00F01B822E2A00F03A81202A40F0B6
:1056C0003B81002908BF012141E100BF4FF0000EDE
:1056D0000AF802E02B68FE2A0B44DDF828B003F834
:1056E0000CEC6BD22A68A1F10C030A44FD2B02F8E2
:1056F0000BEC63D82A68A1F10B030A44FD2B4FF091
:10570000000E02F80AEC59D82A68A1F10A030A44EB
:10571000FD2B02F809EC51D82A68A1F109030A44CB
:10572000FD2B4FF0000E02F808EC47D82A68A1F1D3
:1057300008030A44FD2B02F807EC3FD82A68CB1F68
:105740000A44FD2B4FF0000E02F806EC36D82A680A
:105750008B1F0A44FD2B02F805EC2FD82A684B1F3B
:105760000A44FD2B4FF0000E02F804EC26D82A68FC
:105770000B1F0A44FD2B02F803EC00F2DD820C9BA8
:105780008A1ECF1E00251B68FD2F4FF000079D5479
:1057900000F2D2820C9B049D1B68002D0B4403F881
:1057A000017C00F0C982FD2A00F2C6820C9D4FF0F8
:1057B000000E82462A6802F801E0C1E2824642F207
:1057C000A8406044039027E0069A01310132089115
:1057D000DCF80800009001200190002303200290D3
:1057E00060464FF000090692644604F039FAA44678
:1057F0000028DE46AB464546DDF81080079C40F0A9
:105800009180DCF80800002C00EB09060B9800F1F1
:1058100001000B9000F0A8803078BEF1000F00F07E
:105820001F00A0F1010437D04FF0010E09F120094B
:10583000DCF828008145E4D3A8465D46BBF1000FA3
:10584000079403D1DCF86400002855D0DCF854003C
:1058500008990138F3468142B6D3604605990EAAED
:10586000664603F06DF900285CD10E99022953D3E6
:105870000398006881424FD20A460592D6E9140186
:105880001346023A01FB0202B4460D9801300D9016
:10589000002008909CE700BF0D204FF0000E6043F1
:1058A0000121002206E000BF0C2100BF1E2901F1EA
:1058B0000201BBD20B2918BF1A29F7D00D29F3D04A
:1058C0008B195B7853B1FF2B02D1735CFF2B05D092
:1058D000D5F800A04FF0010EC5F81880735C002BBE
:1058E00018BFFF2BE2D01718FF2F0FD20C9D0132EB
:1058F0002D68EB550C9DD9E7DCE91201069A0844A6
:105900000132F3468242FFF463AF05E0C5F8188028
:10591000D5F800A088E700BF082738460FB0BDE8DB
:10592000F08F00BF074638460FB0BDE8F08F00BFCC
:1059300002212E2208E000BF012905D12E210AF8FC
:105940000010B278013002210AF800200130F2780C
:10595000002A00F0CB802E2A0ED0202A10D1002958
:1059600008BF012117E000BFBEF1010F4FF0010099
:1059700068613FF455AE57E602212E2208E000BFD1
:10598000012905D12E210AF80010F27801300221F8
:105990000AF8002001303279002A00F0A7802E2A70
:1059A00006D0202A08D1002908BF01210FE000BF3E
:1059B00002212E2208E000BF012905D12E210AF87C
:1059C00000103279013002210AF80020013072798A
:1059D000002A00F08B802E2A06D0202A08D1002928
:1059E00008BF01210FE000BF02212E2208E000BF06
:1059F000012905D12E210AF8001072790130022107
:105A00000AF800200130B279002A6FD02E2A05D082
:105A1000202A07D1002908BF01210EE002212E22F1
:105A200008E000BF012905D12E210AF80010B27943
:105A3000013002210AF800200130F279002A55D005
:105A40002E2A05D0202A07D1002908BF01210EE007
:105A500002212E2208E000BF012905D12E210AF8DB
:105A60000010F279013002210AF800200130327A68
:105A7000002A3BD02E2A05D0202A05D1002908BFB4
:105A800001210CE02E2206E0012904D82E210AF87B
:105A90000010327A01300AF8002001300221727AB7
:105AA00022B3202A0FD02E2A02D12E2207E000BFD7
:105AB000012904D12E210AF80010727A01300AF867
:105AC000002001300221B27A002A18BF202A0DD00E
:105AD0002E2A01D12E2206E0012904D12E210AF816
